:1000000000200010430000004100000041000000FB
:1000100041000000410000004100000041000000DC
:1000200041000000410000004100000041000000CC
:1000300041000000410000004100000041000000BC
:10004000FEE70B480B490C4A091A05D013780370D8
:10005000013201300139F9DC08480949091A04D094
:100060005B40037001300139FBDC00F04BFDFEE723
:10007000000000102C010010300B000030010010B7
:1000800030010010600C000010F0800F4FEA4000BB
:1000900018BF80F01B00C0B2704702460723002043
:1000A00010B5FFF7F1FF41FA03F4E40744BF5040F5
:1000B000C0B213F1FF33F4D210BD38B50146FFF7DB
:1000C000ECFF0546FFF7E9FF294604462846FFF7FF
:1000D000E4FF21460546FFF7E0FF0446294628468F
:1000E000FFF7DBFF2146FFF7D8FF0146FFF7D5FFFB
:1000F0000146FFF7D2FF21460546FFF7CEFF014636
:100100002846FFF7CAFFBDE838400146FFF7C5BFE4
:10011000014B185C704700BF0000001070B51D4B0C
:100120004C7B0D7855401A5D554005708A7B9C5C70
:100130004A7854404470CA7B9E5C8A7872408270D0
:100140000E7B9B5DCE787340C3700E797540057150
:100150004E79744044718E7972408271CE797340C9
:10016000C3710E7A754005724E7A744044728E7A6D
:1001700072408272CE7A7340C3720E7B75400573F3
:100180004D7B6C4044738C7B62408273CA7B5340CE
:10019000C37370BD0000001070B50139451E013BEE
:1001A0000F3015F8014F11F8016F854284EA0604FB
:1001B00013F8016F84EA060484EA02042C70F0D17B
:1001C00070BD0549431E0F3013F8012F8A5C83422E
:1001D0001A70F9D1704700BF300100104179427A9E
:1001E000437B10B5447842714473827A84784170BD
:1001F00043728179837B84728173C478C179827000
:100200008371C27AC37BC471C172C273C37010BDE3
:100210002DE9F843031D00F1140813F8046C13F8DA
:10022000035C304613F8024C13F8017CFFF72CFFF7
:1002300081462846FFF728FF02462046FFF724FFA5
:1002400001463846FFF720FF89EA020C4A40414048
:1002500089EA000085EA0C0C72407140464084EA4D
:100260000C0C62406940754087EA0C0C7A406C4087
:100270004F4003F804CC03F8032C03F8027C03F886
:10028000014C04339845C8D1BDE8F88310B5431E2E
:1002900001390F3013F8012F11F8014F834282EA20
:1002A00004021A70F6D110BD431E0F3013F8012F4F
:1002B0004A4083421A70F9D170472DE9F04F0C463D
:1002C000604D97B069680190286893F8019093F8A1
:1002D00005801F461E7A93F809E093F80CC003AB23
:1002E00003C329890AAD198004F1100B23462C465B
:1002F000AA46186859680833AAE803005B455546C2
:10030000F6D106AB1D4602F1100B9A4610685168F3
:100310000832AAE803005A455346F6D18DF83980D1
:100320008DF83BC08DF83D808DF83FC08DF8418041
:100330008DF843C08DF845808DF847C08DF8389012
:100340008DF83AE08DF83C908DF83EE08DF84090C5
:100350008DF842E08DF844908DF846E00DF14808A4
:100360000EAB0FCB88E80F004046FFF751FF00238C
:100370003548DFF8D8C013F80C2086EA03010133B2
:100380007240B3F5807F4254F5D10A22F978B1FB6F
:10039000F2F302FB13130022DBB29A424FDB414619
:1003A0000AA8FFF773FF4346324629460AA8FFF71B
:1003B000F3FE4FF000090EAF2046FFF702FF204684
:1003C000FFF70CFF3146FFF76FFF39462046FFF776
:1003D0005DFF2046FFF71CFF03AB13F809202946F9
:1003E0002846FFF79BFE09F10109434632462046A5
:1003F000FFF7D2FEB9F1090FDED12046FFF7E1FE8B
:100400002046FFF7EBFE29469DF815202846FFF70A
:1004100085FE434632462046FFF7BEFE4146204653
:10042000FFF734FF019B224603CABA4218605960A5
:10043000144603F10803F6D117B0BDE8F08F00BFF2
:100440000132AAE70E0B000030010010000000107E
:1004500039288CBF37383038704770B50646107869
:10046000FFF7F6FF03465078FFF7F2FF344603210B
:1004700000EB031301335B008B42A4EB060000DAB0
:1004800070BD505CFFF7E4FF054650184078FFF759
:10049000DFFF00EB051004F8010B0231ECE72DE95A
:1004A000F8434B000B3323F0070300AFADEB030D14
:1004B00080460E466C466D46002000F083FA0D28FB
:1004C000A5EB040905F8010BF6D1002322463146BD
:1004D000404604F80930FFF7C0FFBD46BDE8F88389
:1004E00000F00F03092B4FEA101094BF303337335D
:1004F000092894BF303037304B700870704773B59F
:100500000D46064601A9E8B2FFF7EAFF9DF8041080
:10051000002000F063FA9DF80510002000F05EFA5C
:100520003A21002000F05AFA3446A31B9D4205DC14
:100530000D21002000F052FA02B070BD01A914F89C
:10054000010BFFF7CDFF9DF80410002000F046FAE4
:100550009DF80510002000F041FAE6E77047FFF72C
:10056000ACBE00BFF0B52C4893B000F0D1F8002825
:100570004BD00AAA1746294B03F1100514461868F8
:100580005968083303C4AB422246F7D11026012133
:1005900001A8FFF784FF012805463AD19DF80440E1
:1005A000FCB1012CF3D1102106A8FFF778FF102829
:1005B0000146ECD10EA8FFF772FF10280546E6D1E0
:1005C0002146002000F06CF80EAB3A4606A902A8BE
:1005D000FFF773FE0021084600F062F8294602A8E2
:1005E00010E012AC04F8416D01462046FFF787FF8A
:1005F000294620468DF80760FFF781FF29462046EF
:100600008DF80760FFF77BFFC1E74FF0FF3013B0B5
:10061000F0BD0020FBE700BF00010010180B000038
:10062000054B9B785843032390FBF3F0002801DD32
:100630000138FDD1704700BF300200100146002292
:1006400008B58A4200DB08BD4FF47A70FFF7E8FF77
:100650000132F6E7024B00211B689869704700BF22
:100660002801001001280CD003D3022811D000204B
:100670007047094B1A6843F6FC73D05800F001002C
:100680007047054B1A6843F6FC73D058C0F340001E
:100690007047024BF6E700BF100100100C0100107C
:1006A000012811D002D3022817D070470E4B1A68C8
:1006B00043F6FC7321B1D15841F00101D15070478C
:1006C000D15821F00101F9E7074B1A6843F6FC7392
:1006D00029B1D15841F00201F0E7044BF5E7D158B8
:1006E00021F00201EAE700BF100100100C01001028
:1006F000024B1B68586900F0010070471C01001094
:10070000024B1B685869C0F3401070471C01001071
:100710002DE9F74F80460568A14810240368A14ED3
:10072000D3F880205FFA85FC42F48032C3F8802041
:100730009D4A3560116801228A67CA670C6140F2E0
:100740000124C1F8A420C1F8A8200C634C63D3F89D
:100750008010944541F02001C3F88010D3F8801038
:10076000009041F04001C3F88010D3F8801041F4AC
:100770008051C3F88010596821F00201596059680E
:1007800041F00201596005D026D3BCF1020F05D01B
:100790000024E1E062464FF0030900E091464FF08B
:1007A000000EC5F307210191C5F307450124019F00
:1007B0000EF1010A0AFB07F1B1FBF4FB04FB1B106D
:1007C00008B95D450AD00134B4F5807FF4D1BAF19F
:1007D000200FD646EAD1DBE70022DCE74D009C3D46
:1007E000A42D0FD98D009C3DA42D40F2B980CD00E1
:1007F0009C3DA42D40F2B68009019C39A42900F249
:10080000CD800320791E13294EEA401000F2AC80FF
:1008100000211962D3F83812BCF1000F40F0AA8011
:1008200041F02001C3F83812C82300BF013BFCD1BE
:10083000009B1B681A645A6C42F001025A645A6C9D
:1008400022F001025A645A6C42F001025A645A6C56
:10085000D507FCD59860D3F8382222F08002C3F87F
:100860003822DA68D107FCD5C3F870905A6F42F08D
:1008700001025A675A6F22F001025A675A6F42F01A
:1008800001025A675A6FD207FCD5B1789C671429C8
:1008900073D80020454A12681061454A126802F573
:1008A0000040046844F001040460046844F0020459
:1008B00004604048006800F50040046824F0020429
:1008C000046043F6FC70145824F0010414501458CA
:1008D00024F002041450384AC3F898101368D968F9
:1008E00041F08001D96005219962996A41F0800147
:1008F00099620021596004211960D96821F08001B2
:10090000D960D96841F00301D960D96821F00801A4
:10091000D960D96821F00401D960FFF7E9FE002809
:1009200037D1FFF7EDFE04460028FAD0234AB3780A
:10093000126803EB830353611361402313606FF06C
:100940007F421F4B1B685A619A6198F803201AB3C3
:1009500005221A6100F0D2F8204603B0BDE8F08FFE
:1009600001204FE702204DE70F3F0A2F3FF652AF1D
:1009700002214EE721F0200154E7282903D80B4A31
:100980000120126888E7322987D8084A02201268B5
:1009900082E713681B68C0E70422DAE70446DBE756
:1009A00004010010300200100801001024010010A2
:1009B000100100100C0100101C010010200100109B
:1009C0002801001008B510B9FFF792FEFBE7024BB3
:1009D0001B681868C0B208BD1C01001008B510B92A
:1009E000FFF78EFEFBE7024B1B68196008BD00BFD6
:1009F0001C0100102DE9F041202541EA400C4FF088
:100A00003C0E042738214FF024081820354E346856
:100A100025603468656805F0F805282D39D014D8AC
:100A2000102D03D007D805B3082DF3D1C4F808C0A2
:100A30002760A061EDE7182D1ED0202DEAD11423E8
:100A4000236028230220A36114E0402D2DD006D876
:100A5000302D24D0382DDDD1C4F80080E9E7502DA9
:100A60002AD0582D35D0482DE8E7142323602823B9
:100A70000120A361BDE8F0812BB115780132A5609A
:100A80002760A161C5E7142222602822A26100200C
:100A9000F0E7013BF1D114222260A561F7E71423AE
:100AA000236028230320A361E4E7012B8ABF27608A
:100AB000C4F818E0A161ACE7A468551C1470326852
:100AC000013B012B8ABF1760C2F818E091612A46EA
:100AD0009FE70BB1A3681370142233681A602822B1
:100AE0009A61D4E72001001013460A460121FFF75E
:100AF00081BF13460A460021FFF77CBF62B67047EC
:100B000072B6704740404940FFF72CFD7047010224
:100B10000408102040801B36065C8680A0E95F8CAC
:080B2000DCF2FBC5D8CEF2F6B1
:080B28000000000000000000C5
:100B3000637C777BF26B6FC53001672BFED7AB769A
:100B4000CA82C97DFA5947F0ADD4A2AF9CA472C045
:100B5000B7FD9326363FF7CC34A5E5F171D83115B2
:100B600004C723C31896059A071280E2EB27B275D3
:100B700009832C1A1B6E5AA0523BD6B329E32F844B
:100B800053D100ED20FCB15B6ACBBE394A4C58CF43
:100B9000D0EFAAFB434D338545F9027F503C9FA817
:100BA00051A3408F929D38F5BCB6DA2110FFF3D2E5
:100BB000CD0C13EC5F974417C4A77E3D645D197399
:100BC00060814FDC222A908846EEB814DE5E0BDB93
:100BD000E0323A0A4906245CC2D3AC629195E479CA
:100BE000E7C8376D8DD54EA96C56F4EA657AAE0824
:100BF000BA78252E1CA6B4C6E8DD741F4BBD8B8ABF
:100C0000703EB5664803F60E613557B986C11D9E24
:100C1000E1F8981169D98E949B1E87E9CE5528DF9B
:100C20008CA1890DBFE6426841992D0FB054BB16C7
:100C3000000C0C0100800440004004400000005003
:100C400000000150000002500000035000800040EE
:0C0C50000000004000C0034000E000E095
:00000001FF
